{
  "_format": "hh-sol-artifact-1",
  "contractName": "Degens",
  "sourceName": "contracts/Dengens.sol",
  "abi": [
    {
      "inputs": [
        {
          "internalType": "string",
          "name": "baseURI",
          "type": "string"
        },
        {
          "internalType": "address",
          "name": "whitelistContract",
          "type": "address"
        }
      ],
      "stateMutability": "nonpayable",
      "type": "constructor"
    },
    {
      "anonymous": false,
      "inputs": [
        {
          "indexed": true,
          "internalType": "address",
          "name": "owner",
          "type": "address"
        },
        {
          "indexed": true,
          "internalType": "address",
          "name": "approved",
          "type": "address"
        },
        {
          "indexed": true,
          "internalType": "uint256",
          "name": "tokenId",
          "type": "uint256"
        }
      ],
      "name": "Approval",
      "type": "event"
    },
    {
      "anonymous": false,
      "inputs": [
        {
          "indexed": true,
          "internalType": "address",
          "name": "owner",
          "type": "address"
        },
        {
          "indexed": true,
          "internalType": "address",
          "name": "operator",
          "type": "address"
        },
        {
          "indexed": false,
          "internalType": "bool",
          "name": "approved",
          "type": "bool"
        }
      ],
      "name": "ApprovalForAll",
      "type": "event"
    },
    {
      "anonymous": false,
      "inputs": [
        {
          "indexed": true,
          "internalType": "address",
          "name": "previousOwner",
          "type": "address"
        },
        {
          "indexed": true,
          "internalType": "address",
          "name": "newOwner",
          "type": "address"
        }
      ],
      "name": "OwnershipTransferred",
      "type": "event"
    },
    {
      "anonymous": false,
      "inputs": [
        {
          "indexed": true,
          "internalType": "address",
          "name": "from",
          "type": "address"
        },
        {
          "indexed": true,
          "internalType": "address",
          "name": "to",
          "type": "address"
        },
        {
          "indexed": true,
          "internalType": "uint256",
          "name": "tokenId",
          "type": "uint256"
        }
      ],
      "name": "Transfer",
      "type": "event"
    },
    {
      "stateMutability": "payable",
      "type": "fallback"
    },
    {
      "inputs": [
        {
          "internalType": "address",
          "name": "to",
          "type": "address"
        },
        {
          "internalType": "uint256",
          "name": "tokenId",
          "type": "uint256"
        }
      ],
      "name": "approve",
      "outputs": [],
      "stateMutability": "nonpayable",
      "type": "function"
    },
    {
      "inputs": [
        {
          "internalType": "address",
          "name": "owner",
          "type": "address"
        }
      ],
      "name": "balanceOf",
      "outputs": [
        {
          "internalType": "uint256",
          "name": "",
          "type": "uint256"
        }
      ],
      "stateMutability": "view",
      "type": "function"
    },
    {
      "inputs": [
        {
          "internalType": "uint256",
          "name": "tokenId",
          "type": "uint256"
        }
      ],
      "name": "getApproved",
      "outputs": [
        {
          "internalType": "address",
          "name": "",
          "type": "address"
        }
      ],
      "stateMutability": "view",
      "type": "function"
    },
    {
      "inputs": [
        {
          "internalType": "address",
          "name": "owner",
          "type": "address"
        },
        {
          "internalType": "address",
          "name": "operator",
          "type": "address"
        }
      ],
      "name": "isApprovedForAll",
      "outputs": [
        {
          "internalType": "bool",
          "name": "",
          "type": "bool"
        }
      ],
      "stateMutability": "view",
      "type": "function"
    },
    {
      "inputs": [],
      "name": "maxTokenIds",
      "outputs": [
        {
          "internalType": "uint256",
          "name": "",
          "type": "uint256"
        }
      ],
      "stateMutability": "view",
      "type": "function"
    },
    {
      "inputs": [],
      "name": "mint",
      "outputs": [],
      "stateMutability": "payable",
      "type": "function"
    },
    {
      "inputs": [],
      "name": "name",
      "outputs": [
        {
          "internalType": "string",
          "name": "",
          "type": "string"
        }
      ],
      "stateMutability": "view",
      "type": "function"
    },
    {
      "inputs": [],
      "name": "owner",
      "outputs": [
        {
          "internalType": "address",
          "name": "",
          "type": "address"
        }
      ],
      "stateMutability": "view",
      "type": "function"
    },
    {
      "inputs": [
        {
          "internalType": "uint256",
          "name": "tokenId",
          "type": "uint256"
        }
      ],
      "name": "ownerOf",
      "outputs": [
        {
          "internalType": "address",
          "name": "",
          "type": "address"
        }
      ],
      "stateMutability": "view",
      "type": "function"
    },
    {
      "inputs": [],
      "name": "paused",
      "outputs": [
        {
          "internalType": "bool",
          "name": "",
          "type": "bool"
        }
      ],
      "stateMutability": "view",
      "type": "function"
    },
    {
      "inputs": [],
      "name": "presaleEndTime",
      "outputs": [
        {
          "internalType": "uint256",
          "name": "",
          "type": "uint256"
        }
      ],
      "stateMutability": "view",
      "type": "function"
    },
    {
      "inputs": [],
      "name": "presaleMint",
      "outputs": [],
      "stateMutability": "payable",
      "type": "function"
    },
    {
      "inputs": [],
      "name": "presaleStarted",
      "outputs": [
        {
          "internalType": "bool",
          "name": "",
          "type": "bool"
        }
      ],
      "stateMutability": "view",
      "type": "function"
    },
    {
      "inputs": [],
      "name": "price",
      "outputs": [
        {
          "internalType": "uint256",
          "name": "",
          "type": "uint256"
        }
      ],
      "stateMutability": "view",
      "type": "function"
    },
    {
      "inputs": [],
      "name": "renounceOwnership",
      "outputs": [],
      "stateMutability": "nonpayable",
      "type": "function"
    },
    {
      "inputs": [
        {
          "internalType": "address",
          "name": "from",
          "type": "address"
        },
        {
          "internalType": "address",
          "name": "to",
          "type": "address"
        },
        {
          "internalType": "uint256",
          "name": "tokenId",
          "type": "uint256"
        }
      ],
      "name": "safeTransferFrom",
      "outputs": [],
      "stateMutability": "nonpayable",
      "type": "function"
    },
    {
      "inputs": [
        {
          "internalType": "address",
          "name": "from",
          "type": "address"
        },
        {
          "internalType": "address",
          "name": "to",
          "type": "address"
        },
        {
          "internalType": "uint256",
          "name": "tokenId",
          "type": "uint256"
        },
        {
          "internalType": "bytes",
          "name": "_data",
          "type": "bytes"
        }
      ],
      "name": "safeTransferFrom",
      "outputs": [],
      "stateMutability": "nonpayable",
      "type": "function"
    },
    {
      "inputs": [
        {
          "internalType": "address",
          "name": "operator",
          "type": "address"
        },
        {
          "internalType": "bool",
          "name": "approved",
          "type": "bool"
        }
      ],
      "name": "setApprovalForAll",
      "outputs": [],
      "stateMutability": "nonpayable",
      "type": "function"
    },
    {
      "inputs": [
        {
          "internalType": "bool",
          "name": "val",
          "type": "bool"
        }
      ],
      "name": "setPaused",
      "outputs": [],
      "stateMutability": "nonpayable",
      "type": "function"
    },
    {
      "inputs": [],
      "name": "startPresale",
      "outputs": [],
      "stateMutability": "nonpayable",
      "type": "function"
    },
    {
      "inputs": [
        {
          "internalType": "bytes4",
          "name": "interfaceId",
          "type": "bytes4"
        }
      ],
      "name": "supportsInterface",
      "outputs": [
        {
          "internalType": "bool",
          "name": "",
          "type": "bool"
        }
      ],
      "stateMutability": "view",
      "type": "function"
    },
    {
      "inputs": [],
      "name": "symbol",
      "outputs": [
        {
          "internalType": "string",
          "name": "",
          "type": "string"
        }
      ],
      "stateMutability": "view",
      "type": "function"
    },
    {
      "inputs": [
        {
          "internalType": "uint256",
          "name": "index",
          "type": "uint256"
        }
      ],
      "name": "tokenByIndex",
      "outputs": [
        {
          "internalType": "uint256",
          "name": "",
          "type": "uint256"
        }
      ],
      "stateMutability": "view",
      "type": "function"
    },
    {
      "inputs": [],
      "name": "tokenIds",
      "outputs": [
        {
          "internalType": "uint256",
          "name": "",
          "type": "uint256"
        }
      ],
      "stateMutability": "view",
      "type": "function"
    },
    {
      "inputs": [
        {
          "internalType": "address",
          "name": "owner",
          "type": "address"
        },
        {
          "internalType": "uint256",
          "name": "index",
          "type": "uint256"
        }
      ],
      "name": "tokenOfOwnerByIndex",
      "outputs": [
        {
          "internalType": "uint256",
          "name": "",
          "type": "uint256"
        }
      ],
      "stateMutability": "view",
      "type": "function"
    },
    {
      "inputs": [
        {
          "internalType": "uint256",
          "name": "tokenId",
          "type": "uint256"
        }
      ],
      "name": "tokenURI",
      "outputs": [
        {
          "internalType": "string",
          "name": "",
          "type": "string"
        }
      ],
      "stateMutability": "view",
      "type": "function"
    },
    {
      "inputs": [],
      "name": "totalSupply",
      "outputs": [
        {
          "internalType": "uint256",
          "name": "",
          "type": "uint256"
        }
      ],
      "stateMutability": "view",
      "type": "function"
    },
    {
      "inputs": [
        {
          "internalType": "address",
          "name": "from",
          "type": "address"
        },
        {
          "internalType": "address",
          "name": "to",
          "type": "address"
        },
        {
          "internalType": "uint256",
          "name": "tokenId",
          "type": "uint256"
        }
      ],
      "name": "transferFrom",
      "outputs": [],
      "stateMutability": "nonpayable",
      "type": "function"
    },
    {
      "inputs": [
        {
          "internalType": "address",
          "name": "newOwner",
          "type": "address"
        }
      ],
      "name": "transferOwnership",
      "outputs": [],
      "stateMutability": "nonpayable",
      "type": "function"
    },
    {
      "inputs": [],
      "name": "withdraw",
      "outputs": [],
      "stateMutability": "nonpayable",
      "type": "function"
    },
    {
      "stateMutability": "payable",
      "type": "receive"
    }
  ],
  "bytecode": "0x6080604052662386f26fc10000600c556014600e553480156200002157600080fd5b50604051620046f0380380620046f0833981810160405281019062000047919062000370565b6040518060400160405280600681526020017f446567656e7300000000000000000000000000000000000000000000000000008152506040518060400160405280600381526020017f44475800000000000000000000000000000000000000000000000000000000008152508160009080519060200190620000cb92919062000237565b508060019080519060200190620000e492919062000237565b50505062000107620000fb6200016960201b60201c565b6200017160201b60201c565b81600b90805190602001906200011f92919062000237565b5080601060006101000a81548173ffffffffffffffffffffffffffffffffffffffff021916908373ffffffffffffffffffffffffffffffffffffffff160217905550505062000588565b600033905090565b6000600a60009054906101000a900473ffffffffffffffffffffffffffffffffffffffff16905081600a60006101000a81548173ffffffffffffffffffffffffffffffffffffffff021916908373ffffffffffffffffffffffffffffffffffffffff1602179055508173ffffffffffffffffffffffffffffffffffffffff168173ffffffffffffffffffffffffffffffffffffffff167f8be0079c531659141344cd1fd0a4f28419497f9722a3daafe3b4186f6b6457e060405160405180910390a35050565b828054620002459062000493565b90600052602060002090601f016020900481019282620002695760008555620002b5565b82601f106200028457805160ff1916838001178555620002b5565b82800160010185558215620002b5579182015b82811115620002b457825182559160200191906001019062000297565b5b509050620002c49190620002c8565b5090565b5b80821115620002e3576000816000905550600101620002c9565b5090565b6000620002fe620002f884620003f3565b620003ca565b9050828152602081018484840111156200031757600080fd5b620003248482856200045d565b509392505050565b6000815190506200033d816200056e565b92915050565b600082601f8301126200035557600080fd5b815162000367848260208601620002e7565b91505092915050565b600080604083850312156200038457600080fd5b600083015167ffffffffffffffff8111156200039f57600080fd5b620003ad8582860162000343565b9250506020620003c0858286016200032c565b9150509250929050565b6000620003d6620003e9565b9050620003e48282620004c9565b919050565b6000604051905090565b600067ffffffffffffffff8211156200041157620004106200052e565b5b6200041c826200055d565b9050602081019050919050565b600062000436826200043d565b9050919050565b600073ffffffffffffffffffffffffffffffffffffffff82169050919050565b60005b838110156200047d57808201518184015260208101905062000460565b838111156200048d576000848401525b50505050565b60006002820490506001821680620004ac57607f821691505b60208210811415620004c357620004c2620004ff565b5b50919050565b620004d4826200055d565b810181811067ffffffffffffffff82111715620004f657620004f56200052e565b5b80604052505050565b7f4e487b7100000000000000000000000000000000000000000000000000000000600052602260045260246000fd5b7f4e487b7100000000000000000000000000000000000000000000000000000000600052604160045260246000fd5b6000601f19601f8301169050919050565b620005798162000429565b81146200058557600080fd5b50565b61415880620005986000396000f3fe6080604052600436106101d15760003560e01c806359533d6c116100f75780638da5cb5b11610095578063b88d4fde11610064578063b88d4fde1461061c578063c87b56dd14610645578063e985e9c514610682578063f2fde38b146106bf576101d8565b80638da5cb5b1461057257806395d89b411461059d578063a035b1fe146105c8578063a22cb465146105f3576101d8565b80636352211e116100d15780636352211e146104b657806370a08231146104f3578063714cff5614610530578063715018a61461055b576101d8565b806359533d6c146104565780635c975abb146104605780635f7696211461048b576101d8565b806316c38b3c1161016f5780632f745c591161013e5780632f745c591461039c5780633ccfd60b146103d957806342842e0e146103f05780634f6ccce714610419576101d8565b806316c38b3c146102f457806318160ddd1461031d57806323b872dd14610348578063249b7c1914610371576101d8565b806306fdde03116101ab57806306fdde0314610259578063081812fc14610284578063095ea7b3146102c15780631249c58b146102ea576101d8565b806301ffc9a7146101da57806304549d6f1461021757806304c98b2b14610242576101d8565b366101d857005b005b3480156101e657600080fd5b5061020160048036038101906101fc9190612d26565b6106e8565b60405161020e91906132e5565b60405180910390f35b34801561022357600080fd5b5061022c610762565b60405161023991906132e5565b60405180910390f35b34801561024e57600080fd5b50610257610775565b005b34801561026557600080fd5b5061026e610822565b60405161027b9190613300565b60405180910390f35b34801561029057600080fd5b506102ab60048036038101906102a69190612d78565b6108b4565b6040516102b8919061327e565b60405180910390f35b3480156102cd57600080fd5b506102e860048036038101906102e39190612c98565b610939565b005b6102f2610a51565b005b34801561030057600080fd5b5061031b60048036038101906103169190612cd4565b610bae565b005b34801561032957600080fd5b50610332610c47565b60405161033f9190613682565b60405180910390f35b34801561035457600080fd5b5061036f600480360381019061036a9190612b92565b610c54565b005b34801561037d57600080fd5b50610386610cb4565b6040516103939190613682565b60405180910390f35b3480156103a857600080fd5b506103c360048036038101906103be9190612c98565b610cba565b6040516103d09190613682565b60405180910390f35b3480156103e557600080fd5b506103ee610d5f565b005b3480156103fc57600080fd5b5061041760048036038101906104129190612b92565b610e9d565b005b34801561042557600080fd5b50610440600480360381019061043b9190612d78565b610ebd565b60405161044d9190613682565b60405180910390f35b61045e610f54565b005b34801561046c57600080fd5b5061047561119a565b60405161048291906132e5565b60405180910390f35b34801561049757600080fd5b506104a06111ad565b6040516104ad9190613682565b60405180910390f35b3480156104c257600080fd5b506104dd60048036038101906104d89190612d78565b6111b3565b6040516104ea919061327e565b60405180910390f35b3480156104ff57600080fd5b5061051a60048036038101906105159190612b2d565b611265565b6040516105279190613682565b60405180910390f35b34801561053c57600080fd5b5061054561131d565b6040516105529190613682565b60405180910390f35b34801561056757600080fd5b50610570611323565b005b34801561057e57600080fd5b506105876113ab565b604051610594919061327e565b60405180910390f35b3480156105a957600080fd5b506105b26113d5565b6040516105bf9190613300565b60405180910390f35b3480156105d457600080fd5b506105dd611467565b6040516105ea9190613682565b60405180910390f35b3480156105ff57600080fd5b5061061a60048036038101906106159190612c5c565b61146d565b005b34801561062857600080fd5b50610643600480360381019061063e9190612be1565b611483565b005b34801561065157600080fd5b5061066c60048036038101906106679190612d78565b6114e5565b6040516106799190613300565b60405180910390f35b34801561068e57600080fd5b506106a960048036038101906106a49190612b56565b61158c565b6040516106b691906132e5565b60405180910390f35b3480156106cb57600080fd5b506106e660048036038101906106e19190612b2d565b611620565b005b60007f780e9d63000000000000000000000000000000000000000000000000000000007bffffffffffffffffffffffffffffffffffffffffffffffffffffffff1916827bffffffffffffffffffffffffffffffffffffffffffffffffffffffff1916148061075b575061075a82611718565b5b9050919050565b601060149054906101000a900460ff1681565b61077d6117fa565b73ffffffffffffffffffffffffffffffffffffffff1661079b6113ab565b73ffffffffffffffffffffffffffffffffffffffff16146107f1576040517f08c379a00000000000000000000000000000000000000000000000000000000081526004016107e8906135a2565b60405180910390fd5b6001601060146101000a81548160ff02191690831515021790555061012c4261081a9190613741565b601181905550565b606060008054610831906138b2565b80601f016020809104026020016040519081016040528092919081815260200182805461085d906138b2565b80156108aa5780601f1061087f576101008083540402835291602001916108aa565b820191906000526020600020905b81548152906001019060200180831161088d57829003601f168201915b5050505050905090565b60006108bf82611802565b6108fe576040517f08c379a00000000000000000000000000000000000000000000000000000000081526004016108f590613582565b60405180910390fd5b6004600083815260200190815260200160002060009054906101000a900473ffffffffffffffffffffffffffffffffffffffff169050919050565b6000610944826111b3565b90508073ffffffffffffffffffffffffffffffffffffffff168373ffffffffffffffffffffffffffffffffffffffff1614156109b5576040517f08c379a00000000000000000000000000000000000000000000000000000000081526004016109ac90613602565b60405180910390fd5b8073ffffffffffffffffffffffffffffffffffffffff166109d46117fa565b73ffffffffffffffffffffffffffffffffffffffff161480610a035750610a02816109fd6117fa565b61158c565b5b610a42576040517f08c379a0000000000000000000000000000000000000000000000000000000008152600401610a3990613482565b60405180910390fd5b610a4c838361186e565b505050565b600d60009054906101000a900460ff1615610aa1576040517f08c379a0000000000000000000000000000000000000000000000000000000008152600401610a9890613562565b60405180910390fd5b601060149054906101000a900460ff168015610abf57506011544210155b610afe576040517f08c379a0000000000000000000000000000000000000000000000000000000008152600401610af5906135e2565b60405180910390fd5b600e54600f5410610b44576040517f08c379a0000000000000000000000000000000000000000000000000000000008152600401610b3b906133e2565b60405180910390fd5b600c543411610b88576040517f08c379a0000000000000000000000000000000000000000000000000000000008152600401610b7f90613502565b60405180910390fd5b600f6000815480929190610b9b90613915565b9190505550610bac33600f54611927565b565b610bb66117fa565b73ffffffffffffffffffffffffffffffffffffffff16610bd46113ab565b73ffffffffffffffffffffffffffffffffffffffff1614610c2a576040517f08c379a0000000000000000000000000000000000000000000000000000000008152600401610c21906135a2565b60405180910390fd5b80600d60006101000a81548160ff02191690831515021790555050565b6000600880549050905090565b610c65610c5f6117fa565b82611945565b610ca4576040517f08c379a0000000000000000000000000000000000000000000000000000000008152600401610c9b90613622565b60405180910390fd5b610caf838383611a23565b505050565b60115481565b6000610cc583611265565b8210610d06576040517f08c379a0000000000000000000000000000000000000000000000000000000008152600401610cfd90613342565b60405180910390fd5b600660008473ffffffffffffffffffffffffffffffffffffffff1673ffffffffffffffffffffffffffffffffffffffff168152602001908152602001600020600083815260200190815260200160002054905092915050565b610d676117fa565b73ffffffffffffffffffffffffffffffffffffffff16610d856113ab565b73ffffffffffffffffffffffffffffffffffffffff1614610ddb576040517f08c379a0000000000000000000000000000000000000000000000000000000008152600401610dd2906135a2565b60405180910390fd5b6000610de56113ab565b9050600047905060008273ffffffffffffffffffffffffffffffffffffffff1682604051610e1290613269565b60006040518083038185875af1925050503d8060008114610e4f576040519150601f19603f3d011682016040523d82523d6000602084013e610e54565b606091505b5050905080610e98576040517f08c379a0000000000000000000000000000000000000000000000000000000008152600401610e8f906134e2565b60405180910390fd5b505050565b610eb883838360405180602001604052806000815250611483565b505050565b6000610ec7610c47565b8210610f08576040517f08c379a0000000000000000000000000000000000000000000000000000000008152600401610eff90613662565b60405180910390fd5b60088281548110610f42577f4e487b7100000000000000000000000000000000000000000000000000000000600052603260045260246000fd5b90600052602060002001549050919050565b600d60009054906101000a900460ff1615610fa4576040517f08c379a0000000000000000000000000000000000000000000000000000000008152600401610f9b90613562565b60405180910390fd5b601060149054906101000a900460ff168015610fc1575060115442105b611000576040517f08c379a0000000000000000000000000000000000000000000000000000000008152600401610ff790613402565b60405180910390fd5b601060009054906101000a900473ffffffffffffffffffffffffffffffffffffffff1673ffffffffffffffffffffffffffffffffffffffff166369ddd67d336040518263ffffffff1660e01b815260040161105b919061327e565b60206040518083038186803b15801561107357600080fd5b505afa158015611087573d6000803e3d6000fd5b505050506040513d601f19601f820116820180604052508101906110ab9190612cfd565b6110ea576040517f08c379a00000000000000000000000000000000000000000000000000000000081526004016110e190613542565b60405180910390fd5b600e54600f5410611130576040517f08c379a000000000000000000000000000000000000000000000000000000000815260040161112790613642565b60405180910390fd5b600c543411611174576040517f08c379a000000000000000000000000000000000000000000000000000000000815260040161116b90613322565b60405180910390fd5b600f600081548092919061118790613915565b919050555061119833600f54611927565b565b600d60009054906101000a900460ff1681565b600e5481565b6000806002600084815260200190815260200160002060009054906101000a900473ffffffffffffffffffffffffffffffffffffffff169050600073ffffffffffffffffffffffffffffffffffffffff168173ffffffffffffffffffffffffffffffffffffffff16141561125c576040517f08c379a0000000000000000000000000000000000000000000000000000000008152600401611253906134c2565b60405180910390fd5b80915050919050565b60008073ffffffffffffffffffffffffffffffffffffffff168273ffffffffffffffffffffffffffffffffffffffff1614156112d6576040517f08c379a00000000000000000000000000000000000000000000000000000000081526004016112cd906134a2565b60405180910390fd5b600360008373ffffffffffffffffffffffffffffffffffffffff1673ffffffffffffffffffffffffffffffffffffffff168152602001908152602001600020549050919050565b600f5481565b61132b6117fa565b73ffffffffffffffffffffffffffffffffffffffff166113496113ab565b73ffffffffffffffffffffffffffffffffffffffff161461139f576040517f08c379a0000000000000000000000000000000000000000000000000000000008152600401611396906135a2565b60405180910390fd5b6113a96000611c8a565b565b6000600a60009054906101000a900473ffffffffffffffffffffffffffffffffffffffff16905090565b6060600180546113e4906138b2565b80601f0160208091040260200160405190810160405280929190818152602001828054611410906138b2565b801561145d5780601f106114325761010080835404028352916020019161145d565b820191906000526020600020905b81548152906001019060200180831161144057829003601f168201915b5050505050905090565b600c5481565b61147f6114786117fa565b8383611d50565b5050565b61149461148e6117fa565b83611945565b6114d3576040517f08c379a00000000000000000000000000000000000000000000000000000000081526004016114ca90613622565b60405180910390fd5b6114df84848484611ebd565b50505050565b60606114f082611802565b61152f576040517f08c379a0000000000000000000000000000000000000000000000000000000008152600401611526906135c2565b60405180910390fd5b6000611539611f19565b905060008151116115595760405180602001604052806000815250611584565b8061156384611fab565b604051602001611574929190613245565b6040516020818303038152906040525b915050919050565b6000600560008473ffffffffffffffffffffffffffffffffffffffff1673ffffffffffffffffffffffffffffffffffffffff16815260200190815260200160002060008373ffffffffffffffffffffffffffffffffffffffff1673ffffffffffffffffffffffffffffffffffffffff16815260200190815260200160002060009054906101000a900460ff16905092915050565b6116286117fa565b73ffffffffffffffffffffffffffffffffffffffff166116466113ab565b73ffffffffffffffffffffffffffffffffffffffff161461169c576040517f08c379a0000000000000000000000000000000000000000000000000000000008152600401611693906135a2565b60405180910390fd5b600073ffffffffffffffffffffffffffffffffffffffff168173ffffffffffffffffffffffffffffffffffffffff16141561170c576040517f08c379a000000000000000000000000000000000000000000000000000000000815260040161170390613382565b60405180910390fd5b61171581611c8a565b50565b60007f80ac58cd000000000000000000000000000000000000000000000000000000007bffffffffffffffffffffffffffffffffffffffffffffffffffffffff1916827bffffffffffffffffffffffffffffffffffffffffffffffffffffffff191614806117e357507f5b5e139f000000000000000000000000000000000000000000000000000000007bffffffffffffffffffffffffffffffffffffffffffffffffffffffff1916827bffffffffffffffffffffffffffffffffffffffffffffffffffffffff1916145b806117f357506117f282612158565b5b9050919050565b600033905090565b60008073ffffffffffffffffffffffffffffffffffffffff166002600084815260200190815260200160002060009054906101000a900473ffffffffffffffffffffffffffffffffffffffff1673ffffffffffffffffffffffffffffffffffffffff1614159050919050565b816004600083815260200190815260200160002060006101000a81548173ffffffffffffffffffffffffffffffffffffffff021916908373ffffffffffffffffffffffffffffffffffffffff160217905550808273ffffffffffffffffffffffffffffffffffffffff166118e1836111b3565b73ffffffffffffffffffffffffffffffffffffffff167f8c5be1e5ebec7d5bd14f71427d1e84f3dd0314c0f7b2291e5b200ac8c7c3b92560405160405180910390a45050565b6119418282604051806020016040528060008152506121c2565b5050565b600061195082611802565b61198f576040517f08c379a000000000000000000000000000000000000000000000000000000000815260040161198690613462565b60405180910390fd5b600061199a836111b3565b90508073ffffffffffffffffffffffffffffffffffffffff168473ffffffffffffffffffffffffffffffffffffffff161480611a0957508373ffffffffffffffffffffffffffffffffffffffff166119f1846108b4565b73ffffffffffffffffffffffffffffffffffffffff16145b80611a1a5750611a19818561158c565b5b91505092915050565b8273ffffffffffffffffffffffffffffffffffffffff16611a43826111b3565b73ffffffffffffffffffffffffffffffffffffffff1614611a99576040517f08c379a0000000000000000000000000000000000000000000000000000000008152600401611a90906133a2565b60405180910390fd5b600073ffffffffffffffffffffffffffffffffffffffff168273ffffffffffffffffffffffffffffffffffffffff161415611b09576040517f08c379a0000000000000000000000000000000000000000000000000000000008152600401611b0090613422565b60405180910390fd5b611b1483838361221d565b611b1f60008261186e565b6001600360008573ffffffffffffffffffffffffffffffffffffffff1673ffffffffffffffffffffffffffffffffffffffff1681526020019081526020016000206000828254611b6f91906137c8565b925050819055506001600360008473ffffffffffffffffffffffffffffffffffffffff1673ffffffffffffffffffffffffffffffffffffffff1681526020019081526020016000206000828254611bc69190613741565b92505081905550816002600083815260200190815260200160002060006101000a81548173ffffffffffffffffffffffffffffffffffffffff021916908373ffffffffffffffffffffffffffffffffffffffff160217905550808273ffffffffffffffffffffffffffffffffffffffff168473ffffffffffffffffffffffffffffffffffffffff167fddf252ad1be2c89b69c2b068fc378daa952ba7f163c4a11628f55a4df523b3ef60405160405180910390a4611c85838383612331565b505050565b6000600a60009054906101000a900473ffffffffffffffffffffffffffffffffffffffff16905081600a60006101000a81548173ffffffffffffffffffffffffffffffffffffffff021916908373ffffffffffffffffffffffffffffffffffffffff1602179055508173ffffffffffffffffffffffffffffffffffffffff168173ffffffffffffffffffffffffffffffffffffffff167f8be0079c531659141344cd1fd0a4f28419497f9722a3daafe3b4186f6b6457e060405160405180910390a35050565b8173ffffffffffffffffffffffffffffffffffffffff168373ffffffffffffffffffffffffffffffffffffffff161415611dbf576040517f08c379a0000000000000000000000000000000000000000000000000000000008152600401611db690613442565b60405180910390fd5b80600560008573ffffffffffffffffffffffffffffffffffffffff1673ffffffffffffffffffffffffffffffffffffffff16815260200190815260200160002060008473ffffffffffffffffffffffffffffffffffffffff1673ffffffffffffffffffffffffffffffffffffffff16815260200190815260200160002060006101000a81548160ff0219169083151502179055508173ffffffffffffffffffffffffffffffffffffffff168373ffffffffffffffffffffffffffffffffffffffff167f17307eab39ab6107e8899845ad3d59bd9653f200f220920489ca2b5937696c3183604051611eb091906132e5565b60405180910390a3505050565b611ec8848484611a23565b611ed484848484612336565b611f13576040517f08c379a0000000000000000000000000000000000000000000000000000000008152600401611f0a90613362565b60405180910390fd5b50505050565b6060600b8054611f28906138b2565b80601f0160208091040260200160405190810160405280929190818152602001828054611f54906138b2565b8015611fa15780601f10611f7657610100808354040283529160200191611fa1565b820191906000526020600020905b815481529060010190602001808311611f8457829003601f168201915b5050505050905090565b60606000821415611ff3576040518060400160405280600181526020017f30000000000000000000000000000000000000000000000000000000000000008152509050612153565b600082905060005b6000821461202557808061200e90613915565b915050600a8261201e9190613797565b9150611ffb565b60008167ffffffffffffffff811115612067577f4e487b7100000000000000000000000000000000000000000000000000000000600052604160045260246000fd5b6040519080825280601f01601f1916602001820160405280156120995781602001600182028036833780820191505090505b5090505b6000851461214c576001826120b291906137c8565b9150600a856120c1919061395e565b60306120cd9190613741565b60f81b818381518110612109577f4e487b7100000000000000000000000000000000000000000000000000000000600052603260045260246000fd5b60200101907effffffffffffffffffffffffffffffffffffffffffffffffffffffffffffff1916908160001a905350600a856121459190613797565b945061209d565b8093505050505b919050565b60007f01ffc9a7000000000000000000000000000000000000000000000000000000007bffffffffffffffffffffffffffffffffffffffffffffffffffffffff1916827bffffffffffffffffffffffffffffffffffffffffffffffffffffffff1916149050919050565b6121cc83836124cd565b6121d96000848484612336565b612218576040517f08c379a000000000000000000000000000000000000000000000000000000000815260040161220f90613362565b60405180910390fd5b505050565b6122288383836126a7565b600073ffffffffffffffffffffffffffffffffffffffff168373ffffffffffffffffffffffffffffffffffffffff16141561226b57612266816126ac565b6122aa565b8173ffffffffffffffffffffffffffffffffffffffff168373ffffffffffffffffffffffffffffffffffffffff16146122a9576122a883826126f5565b5b5b600073ffffffffffffffffffffffffffffffffffffffff168273ffffffffffffffffffffffffffffffffffffffff1614156122ed576122e881612862565b61232c565b8273ffffffffffffffffffffffffffffffffffffffff168273ffffffffffffffffffffffffffffffffffffffff161461232b5761232a82826129a5565b5b5b505050565b505050565b60006123578473ffffffffffffffffffffffffffffffffffffffff16612a24565b156124c0578373ffffffffffffffffffffffffffffffffffffffff1663150b7a026123806117fa565b8786866040518563ffffffff1660e01b81526004016123a29493929190613299565b602060405180830381600087803b1580156123bc57600080fd5b505af19250505080156123ed57506040513d601f19601f820116820180604052508101906123ea9190612d4f565b60015b612470573d806000811461241d576040519150601f19603f3d011682016040523d82523d6000602084013e612422565b606091505b50600081511415612468576040517f08c379a000000000000000000000000000000000000000000000000000000000815260040161245f90613362565b60405180910390fd5b805181602001fd5b63150b7a0260e01b7bffffffffffffffffffffffffffffffffffffffffffffffffffffffff1916817bffffffffffffffffffffffffffffffffffffffffffffffffffffffff1916149150506124c5565b600190505b949350505050565b600073ffffffffffffffffffffffffffffffffffffffff168273ffffffffffffffffffffffffffffffffffffffff16141561253d576040517f08c379a000000000000000000000000000000000000000000000000000000000815260040161253490613522565b60405180910390fd5b61254681611802565b15612586576040517f08c379a000000000000000000000000000000000000000000000000000000000815260040161257d906133c2565b60405180910390fd5b6125926000838361221d565b6001600360008473ffffffffffffffffffffffffffffffffffffffff1673ffffffffffffffffffffffffffffffffffffffff16815260200190815260200160002060008282546125e29190613741565b92505081905550816002600083815260200190815260200160002060006101000a81548173ffffffffffffffffffffffffffffffffffffffff021916908373ffffffffffffffffffffffffffffffffffffffff160217905550808273ffffffffffffffffffffffffffffffffffffffff16600073ffffffffffffffffffffffffffffffffffffffff167fddf252ad1be2c89b69c2b068fc378daa952ba7f163c4a11628f55a4df523b3ef60405160405180910390a46126a360008383612331565b5050565b505050565b6008805490506009600083815260200190815260200160002081905550600881908060018154018082558091505060019003906000526020600020016000909190919091505550565b6000600161270284611265565b61270c91906137c8565b90506000600760008481526020019081526020016000205490508181146127f1576000600660008673ffffffffffffffffffffffffffffffffffffffff1673ffffffffffffffffffffffffffffffffffffffff168152602001908152602001600020600084815260200190815260200160002054905080600660008773ffffffffffffffffffffffffffffffffffffffff1673ffffffffffffffffffffffffffffffffffffffff168152602001908152602001600020600084815260200190815260200160002081905550816007600083815260200190815260200160002081905550505b6007600084815260200190815260200160002060009055600660008573ffffffffffffffffffffffffffffffffffffffff1673ffffffffffffffffffffffffffffffffffffffff16815260200190815260200160002060008381526020019081526020016000206000905550505050565b6000600160088054905061287691906137c8565b90506000600960008481526020019081526020016000205490506000600883815481106128cc577f4e487b7100000000000000000000000000000000000000000000000000000000600052603260045260246000fd5b906000526020600020015490508060088381548110612914577f4e487b7100000000000000000000000000000000000000000000000000000000600052603260045260246000fd5b906000526020600020018190555081600960008381526020019081526020016000208190555060096000858152602001908152602001600020600090556008805480612989577f4e487b7100000000000000000000000000000000000000000000000000000000600052603160045260246000fd5b6001900381819060005260206000200160009055905550505050565b60006129b083611265565b905081600660008573ffffffffffffffffffffffffffffffffffffffff1673ffffffffffffffffffffffffffffffffffffffff168152602001908152602001600020600083815260200190815260200160002081905550806007600084815260200190815260200160002081905550505050565b6000808273ffffffffffffffffffffffffffffffffffffffff163b119050919050565b6000612a5a612a55846136c2565b61369d565b905082815260208101848484011115612a7257600080fd5b612a7d848285613870565b509392505050565b600081359050612a94816140c6565b92915050565b600081359050612aa9816140dd565b92915050565b600081519050612abe816140dd565b92915050565b600081359050612ad3816140f4565b92915050565b600081519050612ae8816140f4565b92915050565b600082601f830112612aff57600080fd5b8135612b0f848260208601612a47565b91505092915050565b600081359050612b278161410b565b92915050565b600060208284031215612b3f57600080fd5b6000612b4d84828501612a85565b91505092915050565b60008060408385031215612b6957600080fd5b6000612b7785828601612a85565b9250506020612b8885828601612a85565b9150509250929050565b600080600060608486031215612ba757600080fd5b6000612bb586828701612a85565b9350506020612bc686828701612a85565b9250506040612bd786828701612b18565b9150509250925092565b60008060008060808587031215612bf757600080fd5b6000612c0587828801612a85565b9450506020612c1687828801612a85565b9350506040612c2787828801612b18565b925050606085013567ffffffffffffffff811115612c4457600080fd5b612c5087828801612aee565b91505092959194509250565b60008060408385031215612c6f57600080fd5b6000612c7d85828601612a85565b9250506020612c8e85828601612a9a565b9150509250929050565b60008060408385031215612cab57600080fd5b6000612cb985828601612a85565b9250506020612cca85828601612b18565b9150509250929050565b600060208284031215612ce657600080fd5b6000612cf484828501612a9a565b91505092915050565b600060208284031215612d0f57600080fd5b6000612d1d84828501612aaf565b91505092915050565b600060208284031215612d3857600080fd5b6000612d4684828501612ac4565b91505092915050565b600060208284031215612d6157600080fd5b6000612d6f84828501612ad9565b91505092915050565b600060208284031215612d8a57600080fd5b6000612d9884828501612b18565b91505092915050565b612daa816137fc565b82525050565b612db98161380e565b82525050565b6000612dca826136f3565b612dd48185613709565b9350612de481856020860161387f565b612ded81613a4b565b840191505092915050565b6000612e03826136fe565b612e0d8185613725565b9350612e1d81856020860161387f565b612e2681613a4b565b840191505092915050565b6000612e3c826136fe565b612e468185613736565b9350612e5681856020860161387f565b80840191505092915050565b6000612e6f601383613725565b9150612e7a82613a5c565b602082019050919050565b6000612e92602b83613725565b9150612e9d82613a85565b604082019050919050565b6000612eb5603283613725565b9150612ec082613ad4565b604082019050919050565b6000612ed8602683613725565b9150612ee382613b23565b604082019050919050565b6000612efb602583613725565b9150612f0682613b72565b604082019050919050565b6000612f1e601c83613725565b9150612f2982613bc1565b602082019050919050565b6000612f41601983613725565b9150612f4c82613bea565b602082019050919050565b6000612f64601683613725565b9150612f6f82613c13565b602082019050919050565b6000612f87602483613725565b9150612f9282613c3c565b604082019050919050565b6000612faa601983613725565b9150612fb582613c8b565b602082019050919050565b6000612fcd602c83613725565b9150612fd882613cb4565b604082019050919050565b6000612ff0603883613725565b9150612ffb82613d03565b604082019050919050565b6000613013602a83613725565b915061301e82613d52565b604082019050919050565b6000613036602983613725565b915061304182613da1565b604082019050919050565b6000613059601483613725565b915061306482613df0565b602082019050919050565b600061307c601883613725565b915061308782613e19565b602082019050919050565b600061309f602083613725565b91506130aa82613e42565b602082019050919050565b60006130c2601783613725565b91506130cd82613e6b565b602082019050919050565b60006130e5601983613725565b91506130f082613e94565b602082019050919050565b6000613108602c83613725565b915061311382613ebd565b604082019050919050565b600061312b602083613725565b915061313682613f0c565b602082019050919050565b600061314e602f83613725565b915061315982613f35565b604082019050919050565b6000613171601583613725565b915061317c82613f84565b602082019050919050565b6000613194602183613725565b915061319f82613fad565b604082019050919050565b60006131b760008361371a565b91506131c282613ffc565b600082019050919050565b60006131da603183613725565b91506131e582613fff565b604082019050919050565b60006131fd601383613725565b91506132088261404e565b602082019050919050565b6000613220602c83613725565b915061322b82614077565b604082019050919050565b61323f81613866565b82525050565b60006132518285612e31565b915061325d8284612e31565b91508190509392505050565b6000613274826131aa565b9150819050919050565b60006020820190506132936000830184612da1565b92915050565b60006080820190506132ae6000830187612da1565b6132bb6020830186612da1565b6132c86040830185613236565b81810360608301526132da8184612dbf565b905095945050505050565b60006020820190506132fa6000830184612db0565b92915050565b6000602082019050818103600083015261331a8184612df8565b905092915050565b6000602082019050818103600083015261333b81612e62565b9050919050565b6000602082019050818103600083015261335b81612e85565b9050919050565b6000602082019050818103600083015261337b81612ea8565b9050919050565b6000602082019050818103600083015261339b81612ecb565b9050919050565b600060208201905081810360008301526133bb81612eee565b9050919050565b600060208201905081810360008301526133db81612f11565b9050919050565b600060208201905081810360008301526133fb81612f34565b9050919050565b6000602082019050818103600083015261341b81612f57565b9050919050565b6000602082019050818103600083015261343b81612f7a565b9050919050565b6000602082019050818103600083015261345b81612f9d565b9050919050565b6000602082019050818103600083015261347b81612fc0565b9050919050565b6000602082019050818103600083015261349b81612fe3565b9050919050565b600060208201905081810360008301526134bb81613006565b9050919050565b600060208201905081810360008301526134db81613029565b9050919050565b600060208201905081810360008301526134fb8161304c565b9050919050565b6000602082019050818103600083015261351b8161306f565b9050919050565b6000602082019050818103600083015261353b81613092565b9050919050565b6000602082019050818103600083015261355b816130b5565b9050919050565b6000602082019050818103600083015261357b816130d8565b9050919050565b6000602082019050818103600083015261359b816130fb565b9050919050565b600060208201905081810360008301526135bb8161311e565b9050919050565b600060208201905081810360008301526135db81613141565b9050919050565b600060208201905081810360008301526135fb81613164565b9050919050565b6000602082019050818103600083015261361b81613187565b9050919050565b6000602082019050818103600083015261363b816131cd565b9050919050565b6000602082019050818103600083015261365b816131f0565b9050919050565b6000602082019050818103600083015261367b81613213565b9050919050565b60006020820190506136976000830184613236565b92915050565b60006136a76136b8565b90506136b382826138e4565b919050565b6000604051905090565b600067ffffffffffffffff8211156136dd576136dc613a1c565b5b6136e682613a4b565b9050602081019050919050565b600081519050919050565b600081519050919050565b600082825260208201905092915050565b600081905092915050565b600082825260208201905092915050565b600081905092915050565b600061374c82613866565b915061375783613866565b9250827fffffffffffffffffffffffffffffffffffffffffffffffffffffffffffffffff0382111561378c5761378b61398f565b5b828201905092915050565b60006137a282613866565b91506137ad83613866565b9250826137bd576137bc6139be565b5b828204905092915050565b60006137d382613866565b91506137de83613866565b9250828210156137f1576137f061398f565b5b828203905092915050565b600061380782613846565b9050919050565b60008115159050919050565b60007fffffffff0000000000000000000000000000000000000000000000000000000082169050919050565b600073ffffffffffffffffffffffffffffffffffffffff82169050919050565b6000819050919050565b82818337600083830152505050565b60005b8381101561389d578082015181840152602081019050613882565b838111156138ac576000848401525b50505050565b600060028204905060018216806138ca57607f821691505b602082108114156138de576138dd6139ed565b5b50919050565b6138ed82613a4b565b810181811067ffffffffffffffff8211171561390c5761390b613a1c565b5b80604052505050565b600061392082613866565b91507fffffffffffffffffffffffffffffffffffffffffffffffffffffffffffffffff8214156139535761395261398f565b5b600182019050919050565b600061396982613866565b915061397483613866565b925082613984576139836139be565b5b828206905092915050565b7f4e487b7100000000000000000000000000000000000000000000000000000000600052601160045260246000fd5b7f4e487b7100000000000000000000000000000000000000000000000000000000600052601260045260246000fd5b7f4e487b7100000000000000000000000000000000000000000000000000000000600052602260045260246000fd5b7f4e487b7100000000000000000000000000000000000000000000000000000000600052604160045260246000fd5b6000601f19601f8301169050919050565b7f6574686572206973206e6f7420656e6f75676800000000000000000000000000600082015250565b7f455243373231456e756d657261626c653a206f776e657220696e646578206f7560008201527f74206f6620626f756e6473000000000000000000000000000000000000000000602082015250565b7f4552433732313a207472616e7366657220746f206e6f6e20455243373231526560008201527f63656976657220696d706c656d656e7465720000000000000000000000000000602082015250565b7f4f776e61626c653a206e6577206f776e657220697320746865207a65726f206160008201527f6464726573730000000000000000000000000000000000000000000000000000602082015250565b7f4552433732313a207472616e736665722066726f6d20696e636f72726563742060008201527f6f776e6572000000000000000000000000000000000000000000000000000000602082015250565b7f4552433732313a20746f6b656e20616c7265616479206d696e74656400000000600082015250565b7f646567656e6420657863656564656420696e206c696d69747300000000000000600082015250565b7f50726573616c6520696e206e6f742072756e6e696e6700000000000000000000600082015250565b7f4552433732313a207472616e7366657220746f20746865207a65726f2061646460008201527f7265737300000000000000000000000000000000000000000000000000000000602082015250565b7f4552433732313a20617070726f766520746f2063616c6c657200000000000000600082015250565b7f4552433732313a206f70657261746f7220717565727920666f72206e6f6e657860008201527f697374656e7420746f6b656e0000000000000000000000000000000000000000602082015250565b7f4552433732313a20617070726f76652063616c6c6572206973206e6f74206f7760008201527f6e6572206e6f7220617070726f76656420666f7220616c6c0000000000000000602082015250565b7f4552433732313a2062616c616e636520717565727920666f7220746865207a6560008201527f726f206164647265737300000000000000000000000000000000000000000000602082015250565b7f4552433732313a206f776e657220717565727920666f72206e6f6e657869737460008201527f656e7420746f6b656e0000000000000000000000000000000000000000000000602082015250565b7f6661696c656420746f2073656e64206574686572000000000000000000000000600082015250565b7f65746865722073656e74206973206e6f7420656e6f7567680000000000000000600082015250565b7f4552433732313a206d696e7420746f20746865207a65726f2061646472657373600082015250565b7f596f7520617265206e6f742077686974656c6973746564000000000000000000600082015250565b7f636f6e74726163742063757272656e746c792070617565736400000000000000600082015250565b7f4552433732313a20617070726f76656420717565727920666f72206e6f6e657860008201527f697374656e7420746f6b656e0000000000000000000000000000000000000000602082015250565b7f4f776e61626c653a2063616c6c6572206973206e6f7420746865206f776e6572600082015250565b7f4552433732314d657461646174613a2055524920717565727920666f72206e6f60008201527f6e6578697374656e7420746f6b656e0000000000000000000000000000000000602082015250565b7f70726573616c65206e6f7420656e646564207965740000000000000000000000600082015250565b7f4552433732313a20617070726f76616c20746f2063757272656e74206f776e6560008201527f7200000000000000000000000000000000000000000000000000000000000000602082015250565b50565b7f4552433732313a207472616e736665722063616c6c6572206973206e6f74206f60008201527f776e6572206e6f7220617070726f766564000000000000000000000000000000602082015250565b7f6578636565646564206d617820646567656e7300000000000000000000000000600082015250565b7f455243373231456e756d657261626c653a20676c6f62616c20696e646578206f60008201527f7574206f6620626f756e64730000000000000000000000000000000000000000602082015250565b6140cf816137fc565b81146140da57600080fd5b50565b6140e68161380e565b81146140f157600080fd5b50565b6140fd8161381a565b811461410857600080fd5b50565b61411481613866565b811461411f57600080fd5b5056fea2646970667358221220bda2d167acdcdd4c302ce65e54e7c36038d15e607224661966642f2208bdde5064736f6c63430008040033",
  "linkReferences": {},
  "deployedLinkReferences": {}
}